:020000020000FC
:060000000C94330018957A
:02000800189549
:02000C00189545
:02001000189541
:060014000C945B0F18952F
:02001C00189535
:02002000189531
:0200240018952D
:02002800189529
:06002C000C944B14189522
:0200340018951D
:060038000C94FB13189567
:02004000189511
:0200440018950D
:0A0048000C943D280C9476261895C0
:020054001895FD
:020058001895F9
:02005C001895F5
:020060001895F1
:100064001895E0E0F1E000270193F830E9F7EF3F5D
:10007400D9F7EE27FF27F083E395EE31E1F7EE277A
:100084000FEF0DBF08E00EBF05B70160102F0D7F05
:1000940015BF05BF0FEE04B90FEF05B900E007B9AE
:1000A40000E308B90EE10AB907EF0BB900E004BD9B
:1000B40003E005BD0AE107BD00E00093800008E00D
:1000C4000093810018E10AE61093890000938800E8
:1000D40002E000936F0002E00093B00004E000939C
:1000E400B1000DE80093B30000E00093700007E650
:1000F4000093C40000E00093C50008E90093C10028
:1001040006E00093C2000CE00093B8000E941613AE
:1001140000E100936B0000916800016000936800A7
:1001240000EC00936D000091680004600093680087
:100134000E9475160CEC0E94CF160EE40E94CF1696
:1001440000E00E94CF1600E00E94CF160FE70E9445
:10015400CF160E943E170E94F1200E9465210E9442
:100164008F21E5EAF1E20E944E190E94802D0E943F
:100174009A0800914801002359F40E9411090E9431
:10018400AA080E94380900E10E941F0B0A95E1F7B2
:100194000E942C0D0E94B80DEAEDF1E005E00193F8
:1001A40001930193019300E003BD02E000936E000C
:1001B40078941127E4E0F1E00AEA100F019308E0D3
:1001C400100F01930BE0100F019302E0100F019345
:1001D4000FE2100F019308E4100F019305E4100FD0
:1001E40001930CE4100F01930CE4100F01930FE43E
:1001F400100F01930AE2100F01930DE4100F019305
:1002040000E5100F019303E3100F019311930FE026
:10021400009325010FEF009324010E948F170E9481
:100224003E170091300203FFFCCF077F009330029A
:100234000E946521EBEAF1E20E944E190AE0009364
:100244008100009351020091320201600093320256
:1002540000C00091300203FF0CC0077F00933002FE
:100264000F9307E00E94E2260E94E90C0E94100D01
:100274000F9104FF10C00F7E009330020F930E9471
:1002840071130091AB04002319F002E00E94E226EE
:100294000E94E71D0F9105FF07C00F7D00933002F8
:1002A4000F930E94802D0F9102FF09C00B7F0093D2
:1002B40030020F930E94720C0E94AD0C0F9101FF4B
:1002C40005C00D7F009330020F930F91009131020E
:1002D40001FF09C00F930E94D8010E94BE010F9133
:1002E4000D7F0093310200FF09C00F930E94D801D3
:1002F4000E94BE010F910E7F0093310202FF09C0DC
:100304000F930E94EF010E94BE010F910B7F009397
:10031400310203FF09C00F930E9406020E94BE012E
:100324000F91077F0093310205FF07C00F930E94CE
:1003340050130F910F7D0093310206FF07C00F93F6
:100344000E9450130F910F7B0093310200913202EF
:1003540003FF04C00F930E9496280F9104FF04C06A
:100364000F930E94782D0F9100913302002309F01E
:1003740002C00E94A4266DCF0F9300E000932402D4
:100384000F910895D404E8043806200403030303FA
:10039400050505050B0B0D0901FFC0030401F0055C
:1003A400180670174C1D900170FF03000F931F93E4
:1003B400EF93FF93ECE3F4E00091600211270370E4
:1003C400E00FF11FE00FF11F05911491F801099559
:1003D400FF91EF911F910F9108950F931F93EF9346
:1003E400FF93E4E4F4E00091600211270370E00F4E
:1003F400F11FE00FF11F05911491F8010995FF9188
:10040400EF911F910F9108950F931F93EF93FF9313
:10041400ECE4F4E00091600211270370E00FF11F97
:10042400E00FF11F05911491F8010995FF91EF91E7
:100434001F910F91089508952A02EB022403550396
:100444001B07B006D9061B0692067C067406BC057B
:100454000091310200FD03C001FD04C005C00E94EB
:10046400370202C00E9491020895FF92FFB6FF92E4
:100474000F931F932F933F934F935F936F937F93A8
:100484008F939F93609145027091460280E090E0C3
:1004940050E040E03DE02CEA0E946A1638F06CEA35
:1004A4007DE050E040E030E024E61CC050E040E055
:1004B40033E028EE0E946A1628F050E040E030E075
:1004C40024E610C050E040E030E028EC0E946A16B8
:1004D40028F050E040E030E022E304C050E040E087
:1004E40030E02AE00E944E160E94CF150E94AB1500
:1004F40060934502709346020E94320801E00E9414
:10050400E2269F918F917F916F915F914F913F91DF
:100514002F911F910F91FF90FFBEFF9008950F93AD
:100524001F932F933F934F935F936F937F938F9377
:100534009F93609145027091460280E090E050E004
:1005440040E030E02AE00E946A1610F009F007C08B
:1005540060E070E050E040E030E020E020C050E097
:1005640040E030E028EC0E946A1610F009F005C063
:1005740050E040E030E02AE012C050E040E033E0D8
:1005840028EE0E946A1610F009F005C050E040E021
:1005940030E022E304C050E040E030E024E60E9472
:1005A40053160E94CF150E94AB15609345027093B9
:1005B40046020E94320801E00E94E2269F918F9138
:1005C4007F916F915F914F913F912F911F910F9167
:1005D40008950F931F93109161020091310200FD61
:1005E40003C001FD0DC018C0173008F01FEF1395AC
:1005F4000E944903C9F7109361020E949B060CC034
:10060400103009F418E01A950E944903C9F71093B1
:1006140061020E949B0600C01F910F910895EF9301
:10062400FF931F93E2E4F3E40027E20FF01F049129
:10063400112319F01A950795FBCF07951F91FF9188
:10064400EF9108952F931F930F93209161021091BE
:1006540062020091310200FD03C001FD09C00FC018
:10066400143008F01FEF13950E941103C8F307C05C
:10067400112309F415E01A950E941103C8F310938D
:1006840062020E94CA060F911F912F910895EF9361
:10069400FF93EAE3F3E40027E10FF01F0491002342
:1006A400FF91EF9108950F931F930F921F92EF9371
:1006B400FF931091610205E0019F00916202000D19
:1006C4001127083250F4ECEEF6E0E00FF11FE00FD2
:1006D400F11F05911491F8010995FF91EF911F9075
:1006E4000F901F910F9108958F0501054705270568
:1006F4001D028F050105470527051D028F0501050C
:10070400470527051D028F050105470527051D021D
:100714001D021D02380767051D022A021D021D0263
:100724001D021D02ED04D404B0041D021D02A40424
:100734004904E703BD039E030091310200FD03C099
:1007440001FD08C00CC00091CA040395053038F0BF
:1007540000E005C00091CA040A950AF404E000937D
:10076400CA0408EB0E941A1A09EB0E941A1A0AEB2F
:100774000E941A1A08950091310200FD03C001FD80
:1007840013C022C00091D4041091D504CAE0D0E073
:100794000C0F1D1FC0E1DEE0C017D107A8F00093C5
:1007A400D4041093D5040DC00091D4041091D50441
:1007B400CAE0D0E00C1B1D0B38F00093D404109356
:1007C400D5040BEB0E941A1A0895EF93FF93CF936D
:1007D400DF930091310200FD03C001FD27C052C028
:1007E4000091CA040F77043081F008F04BC0EEEC9E
:1007F400F4E0C081D18100E616E0C017D10720F4EF
:100804002196C083D1833BC03DC0E2EDF4E0C081BA
:10081400D18104E610E0C00FD11F00E21EE4C0172E
:10082400D10708F0E801C083D18329C00091CA042C
:100834000F77043089F008F025C0EEECF4E0C081B5
:10084400D18121970091CC041091CD04C017D10718
:10085400C8F0C083D18313C0E2EDF4E0C081D1813C
:1008640004E610E0C01BD10B0091D0041091D10418
:1008740018F00C171D0708F0E801C083D1830AEBB8
:100884000E941A1ADF91CF91FF91EF910895EF938F
:10089400FF93CF93DF930091310200FD03C001FD6C
:1008A40029C04BC00091CA04043089F008F045C047
:1008B400ECECF4E0C081D1810091CE041091CF041E
:1008C400C017D107D0F52196C083D18333C0E0EDA2
:1008D400F4E0C081D18104E610E0C00FD11F009183
:1008E400D2041091D304C017D10708F0E801C083E3
:1008F400D18320C00091CA04043079F008F01DC0EF
:10090400ECECF4E0C081D181219700E411E0C01740
:10091400D10798F0C083D1830DC0E0EDF4E0C0812D
:10092400D18104E610E0C01BD10B10F4CC27DD27E5
:10093400C083D18309EB0E941A1ADF91CF91FF91F2
:10094400EF9108950091CB04002311F0002701C01A
:1009540003950093CB040DEB0E941A1AEF93FF93B7
:10096400CF93DF93EEEBF4E0C081D18100913102AB
:1009740000FD03C001FD06C00AC0C07F6096C083AD
:10098400D18305C0C07F6097C083D18300C002EBD0
:100994000E941A1A04EB0E941A1ADF91CF91FF9158
:1009A400EF9108951091BC040091310200FD03C041
:1009B40001FD03C003C0139501C01A951370109371
:1009C400BC0401EB0E941A1A03EB0E941A1A04EBEE
:1009D4000E941A1A08950091BD04003021F00F3FBF
:1009E40021F000E003C00FEF01C000E00093BD045C
:1009F40000EB0E941A1A04EB0E941A1A089500913F
:100A0400610210E0A6EDB1E0A00FB11F0091310228
:100A140000FD03C001FD05C011C00C9103950F70CA
:100A240003C00C910A950F70013019F0083018F0CA
:100A340004C008E002C000E000C00C930091610211
:100A440010EA010F0E941A1A08950091610210E041
:100A5400A2EDB1E0A00FB11F0091310200FD03C06F
:100A640001FD07C00BC00C91003F40F403950C93AB
:100A740005C00C91002311F00A950C9300916102BA
:100A84001CE9010F0E941A1A08950091610210E0F6
:100A9400AEECB1E0A00FB11F0091310200FD03C024
:100AA40001FD07C00BC00C91003F40F403950C936B
:100AB40005C00C91002311F00A950C93009161027A
:100AC40018E9010F0E941A1A08950091310200FDDD
:100AD40003C001FD06C00AC0009165020F5F0370E8
:100AE40005C0009165020150037000C000936502C7
:100AF40007E80E941A1A0895002700933902009308
:100B04003A0200933B0200933C020AE80E941A1A3C
:100B14000E9404080E941B060895CF93DF93EF936D
:100B2400FF930F931F93009161021127E6ECF1E00C
:100B3400E00FF11FE00FF11FC081D181009131025C
:100B440000FD03C001FD05C008C02196C083D18308
:100B540004C02197C083D18300C00091610214E9CD
:100B6400010F0E941A1A1F910F91FF91EF91DF91CB
:100B7400CF91089500916102043008F40CC039F457
:100B840000916202003031F40E947E0503C00530FA
:100B940009F425C04DC000916202002309F048C049
:100BA400009161021127EEEBF1E0E00FF11FE00F7D
:100BB400F11FA081B181C0E0D0E8AC17BD0709F4F2
:100BC4000DC0C6ECD1E0C00FD11FC00FD11F1296CB
:100BD400A883B98314E9010F0E941A1A29C000914D
:100BE4006202002309F01EC0A0914502B0914602A2
:100BF400AB2BF1F400270093390200933A020093DF
:100C04003B0200933C020AE80E941A1AA0E0B0E0FA
:100C1400A0934702B09348020E9404080FE80E9480
:100C24001A1A06C0033009F003C00E94780E00C0EF
:100C3400089500916102043008F44EC0043009F4B0
:100C440004C0053009F428C047C000916202033093
:100C540009F042C000916502003029F40E940F0798
:100C64000E947E063EC0013029F40E9406070E94BD
:100C74007E0637C0023011F42FC033C0033059F45C
:100C840001E00093600205E00093610200E000933C
:100C940062020E949B0625C000916202003009F0A6
:100CA4001BC0A0914502B0914602AB2B49F4A0E0D1
:100CB400B0E0A0934502B09346020E9432080CC0F3
:100CC400A0E0B0E0A0934502B09346020E9432082F
:100CD40000E00093230205C002E0009360020E943A
:100CE400CA06089501E000936002E5ECF4E20E9474
:100CF4004E1908950E94BC0E00E000936002009318
:100D040061020E946521EBEAF1E20E944E19089506
:100D14000D225A22A722F42241238523D123212400
:100D240001E00093600214E00091320201FD10938F
:100D34006102009161021127E4E1FDE0E00FF11F7F
:100D4400E00FF11F05911491F8010E9465210E94A2
:100D54004E19E5ECF4E20E944E19089502E0009366
:100D6400600200270093620200916102043019F0CE
:100D7400053061F00DC00E94060702E00093620294
:100D840000E00093650207E80E941A1A0E94060711
:100D9400009162021127E0E8F9E4E00FF11FE00F8F
:100DA400F11F05911491F8010E944E19089503E072
:100DB4000093600200916102053009F016C00091B1
:100DC4006202003091F4A0E0B0E0A0934502B09339
:100DD40046020E943208A0E0B0E0A0934702B0931C
:100DE40048020E9404080E940F0700916202112722
:100DF400E2ECFAE4E00FF11FE00FF11F059114910A
:100E0400F8010E944E1908950F93009132020E7F4B
:100E14000D7F009332020F9108950F9300913202D7
:100E240001600D7F0093320200E0009323020F91D2
:100E340008950F931F9300912302002321F00027AC
:100E44000093230210C00091320202FD0CC0102F47
:100E54000770013021F0012F0160097F02C0012FCA
:100E6400087F009332021F910F910895009131027F
:100E740000FD03C001FD04C005C00E944A0702C072
:100E84000E94A2070E9404080EE80E941A1A0895FC
:100E9400FF92FFB6FF920F931F932F933F934F93AD
:100EA4005F936F937F938F939F93609147027091A9
:100EB400480280E090E050E040E03EE420E20E94FE
:100EC4006A1638F060E27EE450E040E030E020E072
:100ED4001CC050E040E033E028EE0E946A1628F07F
:100EE40050E040E030E024E610C050E040E030E064
:100EF40024E60E946A1628F050E040E030E022E345
:100F040004C050E040E030E02AE00E944E160E9407
:100F1400CF150E94AB1560934702709348020FE807
:100F24000E941A1A9F918F917F916F915F914F91B7
:100F34003F912F911F910F91FF90FFBEFF90089555
:100F4400FF92FFB6FF920F931F932F933F934F93FC
:100F54005F936F937F938F939F93609147027091F8
:100F6400480280E090E050E040E030E02AE00E9457
:100F74006A1610F009F007C060E070E050E040E04D
:100F840030E020E020C050E040E030E024E60E9461
:100F94006A1610F009F005C050E040E030E02AE0A5
:100FA40012C050E040E033E028EE0E946A1610F0D0
:100FB40009F005C050E040E030E022E304C050E016
:100FC40040E030E024E60E9453160E94CF150E94B0
:100FD400AB15609347027093480260934902709383
:100FE4004A020FE80E941A1A9F918F917F916F9184
:100FF4005F914F913F912F911F910F91FF90FFBEF1
:10100400FF9008950F931F932F933F934F935F93F4
:101014006F937F938F939F9360914B0270914C02D7
:1010240080914D0290914E022091470230914802E6
:101034000E94B71560933D0270933E0280933F0275
:10104400909340020FE80E941A1A9F918F917F910A
:101054006F915F914F913F912F911F910F9108953F
:101064000F931F932F933F934F935F936F937F93AC
:101074008F939F9396ED83E974EA60E020914B028D
:1010840030914C0240914D0250914E020E94CF1576
:1010940020914502309146024427552724173507ED
:1010A40031F490E080E07FEF6FEFAAE027C00E9468
:1010B400CF1500248015900511F4AAE01FC0969561
:1010C400879577956795969587957795679596957E
:1010D40087957795679500248015900511F4ABE00A
:1010E4000DC096958795779567959695879577958D
:1010F40067959695879577956795ACE050E040E0C5
:1011040030E021E00E94531660934F027093500226
:10111400A09351020CE80E941A1A9F918F917F911B
:101124006F915F914F913F912F911F910F9108956E
:101134000E940F130EEE0E941C1300913F01003217
:1011440000E009F40FEF009348010E94161308957C
:101154000F930FB70F931F93FF93EF930E940F13F7
:101164000EEE0E941C1304EF0E941C130EE20E9458
:101174001C130E941613FEE4E0E23197F1F70E947B
:101184000F130EEE0E941C1306EF0E941C130E9404
:101194000F130FEE0E941C130E94251300935F018E
:1011A4000E942C13009360010E9416130E940F13D7
:1011B4000EEE0E941C1304EF0E941C1304EF0E9405
:1011C4001C130E941613F5E7E0E33197319631972B
:1011D4003196319731963197C1F70E940F130EEE75
:1011E4000E941C1306EF0E941C130E940F130FEEA3
:1011F4000E941C130E942513009361010E94251371
:10120400009362010E942C13009363010E94161341
:10121400EF91FF911F910F910FBF0F9108950F93BD
:101224000FB70F931F93FF93EF93F1E0E9E415E1F8
:101234000E940F130EEE0E941C130AEA0E941C1354
:101244000E940F130FEE0E941C130E94251301939A
:101254001A95D9F70E942C1301930E941613EF914B
:10126400FF911F910F910FBF0F9108950F920FB629
:101274000F921F922F923F924F925F926F927F92A2
:101284008F929F92AF92BF92CF92DF92EF92FF9292
:101294000F931F932F933F934F935F936F937F937A
:1012A4008F939F93AF93BF93CF93DF93EF93FF936A
:1012B4006091600170915F01882799272091540102
:1012C4003091530137FD03C04427552702C04FEF27
:1012D4005FEF00000E94531620915201309151019A
:1012E40037FD03C04427552702C04FEF5FEF0000CE
:1012F4000E940E161FE00E9430162B013C01209123
:101304005E0130915D0137FD03C04427552702C0BB
:101314004FEF5FEF00000E944E169B01AC016091FD
:101324005C0170915B0177FD03C08827992702C097
:101334008FEF9FEF00001BE00E943A160E94FF15FA
:101344009201A3010E944E162B013C0150E040E0A3
:1013540030E028E00E944E1650E040E030E020E10A
:101364000E94FF150000B201C30150E040E03FE0DD
:1013740020EA0E9453162B013C019B01AC010E9400
:101384001E161CE00E94301620915801309157011E
:1013940037FD03C04427552702C04FEF5FEF00001D
:1013A4000E941E161BE00E9430164B015C016091E6
:1013B4004C0170914B0177FD03C08827992702C027
:1013C4008FEF9FEF00009201A3010E941E161BE005
:1013D4000E9430169401A5010E944E164B015C0137
:1013E40060914A017091490177FD03C088279927CC
:1013F40002C08FEF9FEF000050E040E030E024E0B7
:101404000E941E169401A5010E944E1610E00E942F
:101414003A1650E040E030E022E00E944E1650E0E0
:1014240040E030E024E00E94FF154B015C01609134
:101434004E0170914D0177FD03C08827992702C0A2
:101444008FEF9FEF00009201A3010E941E161DE082
:101454000E9430166B017C01B201C3019B01AC01F7
:101464000E941E161CE00E943016209156013091F5
:10147400550137FD03C04427552702C04FEF5FEFE6
:1014840000000E941E1610E10E9430169601A7016A
:101494000E944E1650E040E030E022E00E944E16DA
:1014A40012E00E94301650E040E030E820E00E9454
:1014B4004E162091500130914F0137FD03C044274F
:1014C400552702C04FEF5FEF00000E940E161FE089
:1014D4000E9430162B013C01609162017091610100
:1014E400882799279401A5010E94531650E040E0F3
:1014F40033EC20E510E00E9444160E940E1697FD7E
:1015040008C011E00E943A169201A3010E94CF156F
:1015140007C09201A3010E94CF1511E00E943A1660
:101524002B013C0150E040E031E020E00E94FF1537
:101534009B01AC010E941E1650E040E03BE02EED02
:101544008F930E940E161F91129F800D911D139F61
:10155400900D10E10E9430164B015C01B201C301F1
:1015640050E040E03CE12DEB8F930E940E161F915A
:10157400129F800D911D139F900D10E10E94301653
:101584009B01AC010E944E16B401C5010E94531682
:1015940050E040E03EE02FEC0E944E1650E040E068
:1015A40030E020E10E94FF159201A3010E944E1633
:1015B4006093700170937101809372019093730131
:1015C4008B019C01000F111F221F331F600F711F1D
:1015D400821F931F95958795779567959595879520
:1015E40077956795609368017093690180936A01A8
:1015F40090936B01FF91EF91DF91CF91BF91AF91E8
:101604009F918F917F916F915F914F913F912F9116
:101614001F910F91FF90EF90DF90CF90BF90AF900C
:101624009F908F907F906F905F904F903F902F90FE
:101634001F900F900FBE0F900895FF92FFB6FF9278
:10164400AF93BF93CF93DF93EF93FF930F931F93C6
:101654002F933F934F935F936F937F938F939F93B6
:1016640000E1E0EBF1E0C0EBD1E09A918A917A914C
:101674006A910A95002371F00A955A914A913A9118
:101684002A915293429332932293620F731F841FC1
:10169400951FF0CF20E130E040E050E00E94CF15EC
:1016A400E4EBF1E061937193819391938B019C013D
:1016B400000F111F221F331F600F711F821F931F02
:1016C400959587957795679595958795779567957A
:1016D40020916C0130916D0140916E0150916F0128
:1016E40060936C0170936D0180936E0190936F0110
:1016F4000F921F922F923F924F925F9250E040E0E0
:1017040031E02DE70E94B71554E04CE33BE020EABA
:101714000E944E1650E040E037E220E10E94CF15CF
:101724006093C6047093C70460916C0170916D015D
:1017340080916E0190916F0150E040E031E02CE522
:101744000E94B71553E044E13CEB28E60E944E1694
:1017540050E040E037E220E10E94CF156093C804D6
:101764007093C9045F904F903F902F901F900F90FB
:101774009F918F917F916F915F914F913F912F91A5
:101784001F910F91FF91EF91DF91CF91BF91AF9195
:10179400FF90FFBEFF900895D20BD20BDA0BDE0B45
:1017A4005E765E76585E699E9E9E8D7EEEEEEE00BF
:1017B400EED4BDB29E8D7E00E20BE20B120C420C05
:1017C40085858585B2B2B2B285858585B2B2B2B25D
:1017D4004242424258585858424242425858585835
:1017E40085858585B2B2B2B285858585B2B2B2B23D
:1017F4004242424258585858424242425858585815
:1018040000000000000000000000000000000000D4
:1018140000000000000000000000000000000000C4
:10182400230023002C000000000000000000000042
:1018340000000000000000000000000000000000A4
:10184400230023002C000000000000000000000022
:101854000000000000000000000000000000000084
:10186400230023002C000000000000000000000002
:101874000000000000000000000000000000000064
:101884003B3B37373B3B37373B3B37373B3B3737C4
:101894003B3B37373B3B37373B3B37373B3B3737B4
:1018A4000000000000000000000000000000000034
:1018B4000000000000000000000000000000000024
:1018C4000000000000000000000000000000000014
:1018D4000000000000000000000000000000000004
:1018E400EF93FF930F931F9300912302002309F4B6
:1018F40025C0ECEBF7E111270370E00FF11FE00FB7
:10190400F11F05911491F801EE0FFF1F00912202BF
:1019140010E0E00FF11F0395003608F00027009354
:1019240022020491002331F00093B30002E10093FA
:10193400B0000BC002E00093B00007C002E00093C7
:10194400B00000270093220200C01F910F91FF9165
:10195400EF910895089500913202077002FF0EC0BE
:101964000091630210916402010F033079F103E0E6
:1019740010E0009363021093640225C001FF0EC0BF
:101984000091630210916402010F0230F9F002E049
:1019940010E0009363021093640215C000FD0EC0B2
:1019A4000091630210916402010F013079F001E0AB
:1019B40010E0009363021093640205C000270093B3
:1019C40064020093630208E80E941A1A08950E94B0
:1019D4008F170E943E1700914801002349F40E948A
:1019E400AA080E9438090E941F0B09E80E941A1ACB
:1019F4000E94051E0DE80E941A1A0EE80E941A1A87
:101A04000091630210916402011739F0009364029B
:101A14001093630208E80E941A1A08950F931F9303
:101A24002F9300916002003089F00091610205302B
:101A340069F0009124020C3320F4039500932402EE
:101A440005C000E0009324020E947C062F911F91A0
:101A54000F910895E8E7F0E00E94520F602F0E9472
:101A6400520F702F0E94520F802F0E94520F902FFE
:101A74005FEF4FEF3FEF2FEF0E946A1609F075C03A
:101A8400E8E8F3E0C6ECD1E00591099305910993E8
:101A9400059109930591099305910993059109937A
:101AA400059109930591099305910993059109936A
:101AB400059109930591099305910993059109935A
:101AC400059109930591099305910993059109934A
:101AD4000591099305910993CCEBD4E00591099301
:101AE400059109930591099305910993CAECD4E0F2
:101AF4000591099305910170099305910993059145
:101B04000993059109930591099305910993059109
:101B140009930591099305910993059109930591F9
:101B240009930E94BC0EECEAF3E0C1E4D2E0059113
:101B3400099305910993059109930591099360917E
:101B44004102709142028091430290914402E8E77D
:101B5400F0E0062F0E94380F072F0E94380F082F3D
:101B64000E94380F092F0E94380F0895E8E7F0E02B
:101B74000E94520F602F0E94520F702F0E94520F2A
:101B8400802F0E94520F902F50E041E036E820EA67
:101B94000E946A1638F050E046E133EE20E60E94D7
:101BA4006A1620F090E083E07FEF60E760934102E3
:101BB40070934202809343029093440250E040E0C9
:101BC40030E024E60E94CF1560934B0270934C02E0
:101BD40080934D0290934E02E4E6F0E0C6ECD1E02F
:101BE4000E94520F09930E94520F09930E94520FB0
:101BF40009930E94520F09930E94520F09930E9465
:101C0400520F09930E94520F09930E94520F099395
:101C14000E94520F09930E94520F09930E94520F7F
:101C240009930E94520F09930E94520F09930E9434
:101C3400520F09930E94520F09930E94520F099365
:101C44000E94520F09930E94520F09930E94520F4F
:101C540009930E94520F0993ECE7F0E0CCEBD4E037
:101C64000E94520F09930E94520F09930E94520F2F
:101C740009930E94520F0993E0E8F0E0CAECD4E023
:101C84000E94520F09930E94520F017009930E94FF
:101C9400520F09930E94520F09930E94520F099305
:101CA4000E94520F09930E94520F09930E94520FEF
:101CB40009930E94520F09930E94520F09930E94A4
:101CC400520F09930E94520F0993A0E0B0E0A09331
:101CD4004702B09348020E940408A0E0B0E0A09339
:101CE4004502B09346020E94320808956091390279
:101CF40070913A0280913B0290913C0250E041E0A5
:101D040036E820EA0E946A16A0F150E046E133EE7C
:101D140020E60E946A1668F550E040E030E024E6D0
:101D24000E94CF1560934B0270934C0280934D0236
:101D340090934E0250E040E030E024E60E94AB1560
:101D44006093410270934202809343029093440251
:101D5400E8E7F0E0062F0E94380F072F0E94380FA3
:101D6400082F0E94380F092F0E94380F0BE80E9499
:101D74001A1A0895E4E6F0E0C6ECD1E009910E9455
:101D8400380F09910E94380F09910E94380F099168
:101D94000E94380F09910E94380F09910E94380F50
:101DA40009910E94380F09910E94380F09910E94ED
:101DB400380F09910E94380F09910E94380F099138
:101DC4000E94380F09910E94380F09910E94380F20
:101DD40009910E94380F09910E94380F09910E94BD
:101DE400380F09910E94380F09910E94380F099108
:101DF4000E94380FECE7F0E0CCEBD4E009910E94AC
:101E0400380F09910E94380F09910E94380F0991E7
:101E14000E94380FE0E8F0E0CAECD4E009910E9497
:101E2400380F0991002309F001E00E94380F09914D
:101E34000E94380F09910E94380F09910E94380FAF
:101E440009910E94380F09910E94380F09910E944C
:101E5400380F09910E94380F09910E94380F099197
:101E64000E94380F09910E94380F0895F999FECF06
:101E7400FF92FFB6FF921F93F8940F930E94520FA4
:101E8400102F0F913197011729F0E1BDF2BD00BD6C
:101E9400FA9AF99A1F91FF90FFBEFF903196089528
:101EA400F999FECFE1BDF2BDF89A00B531960895D7
:101EB40018950F931F93FF92FFB6FF9209B1007C10
:101EC40010913402103021F4003001F510E81EC0E6
:101ED400003C61F0003421F413951A3F88F416C0D5
:101EE400003819F41A95153020F010C0103871F02C
:101EF40038F000913102026000933102112706C0CC
:101F040000913102016000933102112710933402D1
:101F1400FF90FFBEFF901F910F911895FF92FFB69F
:101F2400FF920F931F9309B11FEF012700721091C5
:101F3400EA040093EA04102715FF04C011E010938B
:101F4400EB0447C01091EB0417FF04C01127109352
:101F5400EB043FC0103059F11A951093EB04C9F506
:101F640005FD21C000C01091ED0413951093ED04FC
:101F7400123030F41091EC04153058F1143648F551
:101F8400009131020460009331020091ED0400934A
:101F9400EE0400270093ED041CC01091ED0413958A
:101FA4001093ED0416C011271093EC0412C005FF22
:101FB40010C01091EC04143631F400913102086021
:101FC4000B7F009331021F3F21F013951093EC0413
:101FD40000C01F910F91FF90FFBEFF900895CD1098
:101FE400F30F2E3F0C020000000000000000383800
:101FF40038000000000038383800000000000000FD
:1020040000000080C0E070381C0E00181C0E07038E
:1020140001000000000000F8FE060383C363331EC2
:10202400FEF800071F1E3331303030181F07000040
:10203400000C0C0EFFFF00000000000000303030E8
:102044003F3F30303000001C1E07030383C3E37797
:102054003E1C0030383C3E37333130303030000CD9
:102064000E070303C3C3C3E77E3C000C1C383030A7
:10207400303030391F0E00C0E070381C0E07FFFFEF
:10208400000000030303030303033F3F0303003F74
:102094007F636363636363E3C383000C1C38303082
:1020A400303030381F0F00C0F0F8DCCEC7C3C3C3D4
:1020B4008000000F1F393030303030391F0F0003DB
:1020C4000303030303C3F33F0F0300000000303C8A
:1020D4000F03000000000000BCFEE7C3C3C3E7FE1B
:1020E400BC00000F1F393030303030391F0F003C36
:1020F4007EE7C3C3C3C3C3E7FEFC00000030303037
:10210400381C0E07030000FFFF030303030303FF50
:10211400FF00003F3F0000000000003F3F0000FFC1
:10212400FF8383838383C7FE7C00003F3F0101015B
:1021340001010100000000FFFF0000C0F0380EFFA5
:10214400FF00003F3F1C07030000003F3F0000FF6B
:10215400FFC3C3C3C3E7FEBC0000003F3F303030C1
:102164003030391F0F0000FFFFC3C3C3C3C3C30311
:102174000300003F3F30303030303030300000005A
:10218400030303FFFF030303000000000000003FFC
:102194003F000000000000FF0601000000000000F6
:1021A400003C42423C000000047E000000446252B5
:1021B4004C000024424A34000030367F3630001888
:1021C4005C7E5C18081830180C0600183C3C18009B
:1021D40000003E003E00FFC3DBDBC3FF002C122ADD
:1021E400241A000609090600001C1C22417F005C19
:1021F4006202625C002A1C361C2A00007F3E1C0816
:1022040000081C3E7F000014367F36140044445FEF
:1022140044440006097F017F00224D555922006085
:10222400606060000048645448000004067F0604AF
:102234002214081422000008083E1C0800081C3E52
:10224400080800784040404000081C081C08003082
:102254003C3F3C3000030F3F0F0300000000000030
:102264000000065F060000070300070300247E2425
:102274007E2400242B6A1200006313086463003672
:102284004956205000000700000000003E410000B5
:102294000000413E000000083E1C3E080008083EC5
:1022A400080800000008000000080808080800608A
:1022B40060000000002010080402003E4149413E35
:1022C4000000427F400000625149494600224149D2
:1022D4004936001814127F10002F49494931003C37
:1022E4004A49493000017109050300364949493614
:1022F40000064949291E00006C6C00000000EC6CCB
:102304000000000814224100002424242424000096
:1023140041221408000201590906003E415D551E80
:10232400007E1111117E007F49494936003E41412A
:102334004122007F4141413E007F49494941007F9C
:1023440009090901003E4149497A007F0808087FCC
:102354000000417F410000304040403F007F0814AE
:102364002241007F40404040007F0204027F007F02
:102374000204087F003E4141413E007F09090906ED
:10238400003E4151215E007F090919330026494965
:1023940049320001017F0101003F4040403F0007F6
:1023A40018601807003F403C403F00631408146362
:1023B40000070870080700714945430000007F4189
:1023C4004100000204081020000041417F00000485
:1023D40002010204808080808080000007060000E3
:1023E400002054545478007F444444380038444412
:1023F400442800384444447F0038545454080008A6
:102404007E0909000018A4A4A47C007F04047800B9
:102414000000007D4000004080847D00007F102883
:1024240044000000007F4000007C04180478007C15
:102434000404780000384444443800FC44444438DC
:102444000038444444FC00447844040800085454CC
:10245400542000043E444400003C40207C00001C06
:102464002040201C003C6030603C006C10106C006C
:10247400009CA0603C00006454544C0000083E41A1
:102484004100000077000000000041413E080002C6
:1024940001020100003C2623263C007E1111117E1E
:1024A400007F49494931007F49494936007F01018C
:1024B4000101C07E41417FC0007F49494941007705
:1024C400087F0877224949493600007F2010087F99
:1024D400007E2111097E007F0814224100407E0104
:1024E400017F007F0204027F007F0808087F003E0E
:1024F4004141413E007F0101017F007F0909090636
:10250400003E414141220001017F0101002748486A
:10251400483F000E117F110E006314081463007FFE
:1025240040407FC000070808087F007F407F407F4D
:10253400007F407F40FF03017F484830007F4848C8
:10254400307F007F4848483000224149493E007F9F
:10255400083E413E00331909097F00205454547841
:10256400003C4A4A4A31007C54545428007C0404F8
:102574000404C07844447CC0003854545408006CAB
:10258400107C106C002844545428007C2010087CD3
:10259400007C20120A7C007C10284400403804048B
:1025A4007C00007C0810087C007C1010107C003833
:1025B40044444438007C0404047C00FC444444380F
:1025C4000038444444280004047C0404009CA060B3
:1025D4003C000018247C2418006C10106C00007C53
:1025E40040407CC0000C1010107C007C407C407C7F
:1025F400007C407C40FC0C047C505020007C5050FB
:10260400207C007C50505020002844545438007CD6
:102614001038443800483414147C0F9304EA0093AF
:10262400BC001FD00F9108950F9304E90093BC00E0
:102634000F9108950F930093BB0004E80093BC002E
:1026440010D00F91089504EC0093BC000AD00091BF
:10265400BB00089504E80093BC0003D00091BB00C4
:102664000895EF93FF93F3E0E8EE989400E0319738
:1026740031963197319631973196319739F00091EF
:10268400BC0007FFF4CF0091B90003C00E941613E9
:1026940000E000933F01FF91EF910895FF92FFB690
:1026A400FF920F930E940F1302E30E941C130091E8
:1026B4003F01083109F00CC00091B3040E941C13BF
:1026C4000091B4040E941C130091B5040E941C13D1
:1026D4000E9416130F91FF90FFBEFF900895FF9282
:1026E400FFB6FF92EF93FF930F931F932F9322272D
:1026F4000E940F1303E30E941C1300913F01003456
:1027040089F000C00E9416130FEF0093B00400E09C
:102714000093AC040093AE0400E80093AD0400936E
:10272400AF045EC00E9425131091AC040093AC0466
:10273400101321600E9425131091AD040093AD0481
:10274400101321600E9425131091AE040093AE046F
:10275400101322600E9425131091AF040093AF045C
:10276400101322600E942C130E9416130F930370FF
:102774001091B0040093B004101324600F910F93D0
:1027840010E004FD1FEF012F1091B1040093B10478
:10279400101328600F9110E005FD1FEF012F109119
:1027A400B2040093B204101320612093AB0420FF01
:1027B40000C021FF00C022FF0CC00091B0041091A2
:1027C4002302033031F4133049F003E00093230271
:1027D40005C0133019F400E00093230223FF00C066
:1027E4002F911F910F91FF91EF91FF90FFBEFF90EA
:1027F4000895FF92FFB6FF920F931F932F9307B58F
:102804001AE1010F07BD0E94E32C009118020F3555
:1028140008F00FEF039500931802A0F10E94900FA7
:102824001091300212601093300200911B020930A3
:1028340020F01460109330020FEF039500931B02F5
:1028440008F100911D02023020F010611093300253
:102854000FEF039500931D0200911E02053020F036
:102864001062109330020FEF039500931E02009143
:102874001C02093020F01860109330020FEF03950A
:1028840000931C022F911F910F91FF90FFBEFF90A8
:102894001895FF92FFB6FF92AF93BF93CF93DF9348
:1028A400EF93FF930F931F932F933F934F935F9354
:1028B4006F937F938F939F9309B104FD03C004FF2B
:1028C40020C060C0A0914502B091460210E0A1175B
:1028D400B10709F457C00091320200FF53C001FD53
:1028E40051C002FD4FC0C0914F02D0915002A0913F
:1028F4005102D0938900C0938800A09381005C9812
:1029040041C05C9AA0913902B0913A02C0913B0255
:10291400D0913C02119608F42196A0933902B09309
:102924003A02C0933B02D0933C020AE80E941A1A6E
:10293400A0913D02B0913E02C0913F02D09140026D
:1029440010E0A117B107C107D10709F41BC0119703
:1029540008F42197A0933D02B0933E02C0933F0236
:10296400D093400210E0A117B107C107D10751F479
:10297400009132020260009332020E94040802E0D5
:10298400009323029F918F917F916F915F914F915B
:102994003F912F911F910F91FF91EF91DF91CF9173
:1029A400BF91AF91FF90FFBEFF9018950091260252
:1029B40019F40093250206C00091250203950093A3
:1029C40025020A300895FF92FFB6FF924F935F935A
:1029D4006F937F938F939F93FF93EF9350E097FFB1
:1029E40003C05FEF0E94581650935F0240E2EE244A
:1029F400DD24CC24BB24AA24FF27660F771F881F5D
:102A0400991FAA1CBB1CCC1CDD1CEE1C4A9561F052
:102A1400EFE052915D5F53FD50835081505D57FD4F
:102A24005083EA30B1F7E9CF5A2D5F705063509369
:102A340053025A2D52955F705063509354025B2D8C
:102A44005F705063509355025B2D52955F705063D5
:102A5400509356025C2D5F705063509357025C2D67
:102A640052955F705063509358025D2D5F705063B0
:102A7400509359025D2D52955F70506350935A02E2
:102A84005E2D5F70506350935B025E2D52955F70B4
:102A9400506350935C02EF91FF919F918F917F91CE
:102AA4006F915F914F91FF90FFBEFF9008950F9338
:102AB4001F935F934F933F932F93CF93DF9320E024
:102AC40039E0CCE5D2E000915D02301751F048F0D6
:102AD4000881003331F400E20883219723953A9565
:102AE40091F720935E02222359F000915F02003097
:102AF40039F010E0CDE5D2E0C21BD10B0DE2088322
:102B0400002700935D02DF91CF912F913F914F9168
:102B14005F911F910F9108952FE223950456E8F7D2
:102B24001AE31A95065FE8F3004D0895FF92FFB685
:102B3400FF92102F0F70107F1295005D0A3308F07A
:102B4400095F105D1A3308F0195FFF90FFBEFF9014
:102B540008957F93629FB001829FC0010F90029EEF
:102B6400700D811D0024901D0895629F1001829FA5
:102B74002001729F300C411C1124511C639F300CA6
:102B8400411C1124511C739F400C511C839F500CF9
:102B9400B101C2010895689400C0002411242224C4
:102BA400332410E2660F771F881F991F001C111C25
:102BB400221C331C021A130A240A350A28F4020EB2
:102BC400131E241E351E01C061601A9559F75695CF
:102BD40047953795279517952015310542055305D7
:102BE40030F411E0610F10E0711F811F911F111F5C
:102BF400221F331F441F551F0895952797FB9527C0
:102C040097FD0E94581657FD0E9461160E94CF1529
:102C140016F40E9458160895AB01429FB001539FC9
:102C2400C001529F2224700D811D921D349F2224C5
:102C3400700D811D921D0895AB01429FB001530296
:102C4400C001520311271040700D811D911F3403E0
:102C540011271040700D811D911F08951F711123BC
:102C640031F01A959595879577956795F8CF0895DE
:102C74001F71112331F01A95660F771F881F991F52
:102C8400F8CF08951F71112331F01A955595479582
:102C940037952795F8CF0895620F731F841F951FEA
:102CA4000895621B730B840B950B089560957095C2
:102CB400809590956F5F7F4F8F4F9F4F089520951C
:102CC4003095409550952F5F3F4F4F4F5F4F08957C
:102CD400621773078407950708959B01AC01089553
:102CE400B901CA0108950F930FB70F931F930FEF04
:102CF40007B90F931F930DEC17E001501040E8F74C
:102D04001F910F9100EF07B90F931F930DEF10E080
:102D140001501040E8F71F910F9116B11F700F93E7
:102D24001F930DEC16E001501040E8F71F910F912E
:102D340006B10F70012B10271093BD011F910F9145
:102D44000FBF0F9108950F930FB70F930FEF07B9AC
:102D540000EF08B90F931F9302E10150F0F71F91A0
:102D64000F910091BC01006F08B90F931F9305EEFA
:102D740010E001501040E8F71F910F9100EF07B9E0
:102D840000EF08B90F931F9307E20150F0F71F916A
:102D94000F910F910FBF0F9108951F931FB71F93AA
:102DA4000F932F9318E0103061F01A9500FF20E084
:102DB40000FD2FE007952093BC010E94A5160C94FA
:102DC400D5162F910F911F911FBF1F9108950F9337
:102DD4000FB70F930FEF07B90F931F9302E1015041
:102DE400F0F71F910F9100EF07B90F931F9302E3C0
:102DF4000150F0F71F910F9106B10F700093BC01C1
:102E04000F931F930DED10E001501040E8F71F9150
:102E14000F910F910FBF0F9108950F930FB70F9359
:102E24001F934F935F936F937F9344275527662790
:102E3400772718E0103079F01A950E94E91600916E
:102E4400BC0107954795079557950795679507958D
:102E540077950C941C174093B8015093B901609373
:102E6400BA017093BB017F916F915F914F911F9154
:102E74000F910FBF0F9108950F930E9475160CECDC
:102E84000E94CF1604E40E94CF160F910895EF9389
:102E9400FF93CF93DF930F93EEEDF1E0C6EED1E015
:102EA4000191099301910993019109930191099366
:102EB4000191099301910993019109930191099356
:102EC400EEEBF1E0CEEDD1E001910993019109938C
:102ED4000191099301910993019109930191099336
:102EE40001910993019109930F91DF91CF91FF9182
:102EF400EF910895EF93FF93CF93DF93E8E0DCE83D
:102F0400F12FF02716950695F0FD1D27EA95C1F7D8
:102F1400DF91CF91FF91EF9108950F931F932F931A
:102F2400AF93BF93CF93DF93EF93FF930E9449171F
:102F34000E9475160CEC0E94CF160EEB0E94CF1661
:102F4400EEEEF1E0C2E1D2E00027088309830A83B0
:102F54000B8328E00E940F17A8EBB1E00D910083CA
:102F640018810E947C1718830D91018719810E9492
:102F74007C1719830D91028B1A810E947C171A8386
:102F84000D91038F1B810E947C171B8331962A9518
:102F940009F70E940F17A8EBB1E00D910083188187
:102FA400011741F02091DE012093EE012091DF0111
:102FB4002093EF010D9101871981011741F02091B0
:102FC400E0012093F7012091E1012093F8010D9194
:102FD400028B1A81011741F02091E2012093000233
:102FE4002091E301209301020D91038F1B810117AE
:102FF40041F02091E401209309022091E5012093FE
:103004000A02EEEEF1E0CEEBD1E0008109930181FA
:103014000993018509930285099302890993038918
:103024000993038D0993048D0993E0E0F0E800917E
:10303400BD0100FD04C0E093BE01F093BF0101FD9A
:1030440004C0E093C001F093C10102FD04C0E09309
:10305400C201F093C30103FD04C0E093C401F093E3
:10306400C501E0E0F0E8A091DE01B091DF01C0917C
:10307400BE01D091BF01AE17BF0739F0AC17BD0731
:1030840079F000E90E941A1A0BC0E0E5F5E0CE17CA
:10309400DF07A1F7C0E0D0E8C093BE01D093BF0121
:1030A400E0E0F0E8A091E001B091E101C091C0013D
:1030B400D091C101AE17BF0739F0AC17BD0779F045
:1030C40001E90E941A1A0BC0E0E5F5E0CE17DF070C
:1030D400A1F7C0E0D0E8C093C001D093C101E0E003
:1030E400F0E8A091E201B091E301C091C201D09156
:1030F400C301AE17BF0739F0AC17BD0779F002E979
:103104000E941A1A0BC0E0E5F5E0CE17DF07A1F71D
:10311400C0E0D0E8C093C201D093C301E0E0F0E87E
:10312400A091E401B091E501C091C401D091C50121
:10313400AE17BF0739F0AC17BD0779F003E90E9459
:103144001A1A0BC0E0E5F5E0CE17DF07A1F7C0E0DF
:10315400D0E8C093C401D093C50103EB0E941A1AAE
:1031640004EB0E941A1AFF91EF91DF91CF91BF9166
:10317400AF912F911F910F910895FF92FFB6FF9287
:103184000F931F932F933F934F930F921F92FF938D
:10319400EF93F198F0980F9300914401017010E0BF
:1031A400E2EEFFE1E00FF11FE00FF11F0591159131
:1031B400000F111F00933C0110933D01F8010F9182
:1031C4001591259135914591003249F0003031F047
:1031D400011718F0021721F018F049C0F09AF19A7B
:1031E400003828F0003CC8F3103C08F400540F9356
:1031F400011B349F009DE00DF11D009140010093DF
:10320400420100914101009343010F910E3219F4E0
:1032140000243695301D4F933F930091400100E008
:10322400F19B05910E9425213A95F0993A95A9F7C9
:1032340002C00591F9CF3F914A9579F0009142017E
:1032440000934001009143010395077000934101ED
:10325400009343010E944619DFCF4F910091410131
:10326400041B03950770009341010E944619EF91D6
:10327400FF911F900F904F913F912F911F910F91AC
:10328400FF90FFBEFF90089500914001109141010D
:103294000E943F21089571CFFF92FFB6FF92AF9332
:1032A400BF93CF93DF93EF93FF930F931F932F93CA
:1032B400EE0FFF1F002700934501009145010A3FCF
:1032C40008F02BC003950093450105910038F0F0F8
:1032D40009F423C0013819F40E94621AEECF0338AE
:1032E40019F40E94711AE9CF043819F40E94781A6B
:1032F400E4CF053819F40E94851ADFCF063819F493
:103304000E94901ADACF003C08F404C000300E94F6
:103314004D19D3CF0E949C19D0CF2F911F910F919B
:10332400FF91EF91DF91CF91BF91AF91FF90FFBEDD
:10333400FF900895FF92FFB6FF92AF93BF93CF9390
:10334400DF93EF93FF930F931F932F933F934F9329
:103354005F936F937F938F939F93ECE1FBE3C6E6B8
:10336400D2E00F93005810E0E00FF11FE00FF11FBF
:10337400C00FD11FC00FD11F05911491F801009106
:1033840040010F77088310914101177000914401A7
:10339400029500710062012B19811078012B1091A4
:1033A40046011F3F11F4006801C00F7709830F9194
:1033B400099500E0009346019F918F917F916F9151
:1033C4005F914F913F912F911F910F91FF91EF9139
:1033D400DF91CF91BF91AF91FF90FFBEFF90089511
:1033E400CF93DF930F931F93C6E6D2E000581127C3
:1033F400C00FD11FC00FD11F19811F7719831F91CF
:103404000F91DF91CF910895CF93DF930F931F9383
:10341400C6E6D2E000581127C00FD11FC00FD11F3C
:103424001981106819831F910F91DF91CF9108952D
:10343400CF93DF930F931F93C6E6D2E00058112772
:10344400C00FD11FC00FD11F1981106419831F91A0
:103454000F91DF91CF9108950F931F93CF93DF9333
:10346400C6E6D2E000581127C00FD11FC00FD11FEC
:10347400088119810E943F211F7B1062198317FD67
:103484000FEF17FF00E00093460112951F70109391
:103494004401DF91CF911F910F91089500E20E94A2
:1034A4004D190DE20E944D190E944D190EE20E9421
:1034B4004D190DE20E944D190E944D190895089569
:1034C4000591017000933B0100934401089500E0CD
:1034D40000934401089501E0009344010895059187
:1034E4000F77159117700E943F210895259100913F
:1034F4004001020F0F77259110914101120F1770AF
:103504000E943F2108951591112321F01FEF10937C
:10351400460103C010E0109346010895CF93DF9352
:103524000F931F930591003C68F4003858F000583D
:103534001127C6E6D2E0C00FD11FC00FD11F0981E9
:103544000F7D09831F910F91DF91CF910895E0EDD5
:10355400FBE40091650203701127E00FF11FE00FF7
:10356400F11F05911491F8010E944E190895E8E2A3
:10357400FCE40091630207701127E00FF11FE00FD4
:10358400F11F05911491F8010E944E1908950E94AB
:103594002E1A00914801002309F029C0CCE6D1E09D
:1035A400688179818A819B8100E406170CE9070709
:1035B40000E0080700E00907D0F40E94E514009138
:1035C40057020E944D19009156020E944D19009114
:1035D40055020E944D190EE20E944D1900915402A9
:1035E4000E944D19009153020E944D1912C00DE220
:1035F4000E944D190DE20E944D190DE20E944D19D1
:103604000EE20E944D190DE20E944D190DE20E9436
:103614004D1908950E942E1AC9E3D2E008E060C053
:103624000E942E1AC1E4D2E007E05AC00E942E1A6A
:10363400C5E4D2E004E04FC00E942E1A609141021A
:1036440070914202809143029091440250E040E024
:1036540030E024E60E94CF159B01AC016091390251
:1036640070913A0280913B0290913C020E94CF15E6
:1036740005E03AC00E942E1AC0914702D091480238
:1036840000E0C017D00729F4E3E7F6E20E944E19E0
:103694000895609141027091420280914302909199
:1036A400440250E040E030E024E60E94CF159B0144
:1036B400AC0160913D0270913E0280913F02909175
:1036C40040020E94CF1505E00FC00E942E1AC7E4E5
:1036D400D2E005E000C0688179818827992704C079
:1036E400688179818A819B810E94E5140E94591521
:1036F4000930A1F00830B1F00730C1F00630D1F044
:103704000530E1F00430F1F0033001F1023011F141
:10371400013021F100915C020E944D1900915B027D
:103724000E944D1900915A020E944D1900915902AC
:103734000E944D19009158020E944D1900915702A0
:103744000E944D19009156020E944D190091550294
:103754000E944D19009154020E944D190091530288
:103764000E944D1908950E942E1A1091BD0100392E
:1037740029F410FD18C00E94501A59C0013929F4C7
:1037840011FD11C00E94501A52C0023929F412FDD1
:103794000AC00E94501A4BC0033929F413FD03C018
:1037A4000E94501A44C0CEEBD1E000591127C00F3B
:1037B400D11FC00FD11F6881798121E732E00E94B7
:1037C4001E160E94E51404E000935D020E94591540
:1037D40050E048E936E920E80E946A1650F05FEFAD
:1037E40040EF30EC21E30E946A1608F420C00DE299
:1037F40002C0009159020E94BF18009158020E9411
:10380400BF18009157020E94BF180EE20E94BF1811
:10381400009156020E94BF181091540204E301174C
:1038240010E000915502011F0E94BF1800C00895C6
:103834000E942E1ACEECD1E008591127C00FD11FD7
:1038440008810E948E15203321F420E2103309F4FC
:1038540010E20F93022F0E944D19012F0E944D195F
:103864000F910E944D1908950E942E1AC6EDD1E0C1
:10387400005A1127C00FD11F0881E8E7FCE40F703C
:103884001127E00FF11FE00FF11F05911491F801CA
:103894000E944E1908950E942E1A0091BD040F3FF4
:1038A40019F0E3E7F6E202C0EFE6F6E20E944E19F1
:1038B40008950E942E1A0091BC040E9498150E943B
:1038C400BF1808950E942E1ACEEBD4E00E94DD1B8F
:1038D40008950E942E1A0091BC0410E9010F0E9461
:1038E400B71B08950E942E1A0091B004013021F0F4
:1038F400EEEDF3E434961AC00091BC041127EEEB0C
:10390400F1E0E00FF11FE00FF11FC081D18100E071
:1039140010E80C171D07EEEDF3E431F00091BD043F
:10392400003011F0329602C0309600C00591149117
:10393400F8010E944E1908950E942E1A0091C104A4
:10394400002309F00DC0C2ECD4E0688179818A813A
:103954009B8100E000935D0206E00E94721B12C08E
:103964000CE20E944D190CE20E944D190CE20E94D7
:103974004D190CE20E944D190CE20E944D190CE203
:103984000E944D1908956091C6047091C704882758
:10399400992705E00E94E5140E94591500915702E9
:1039A4000E944D19009156020E944D190091550232
:1039B4000E944D190EE20E944D19009154020E947A
:1039C4004D19009153020E944D1908956091C80445
:1039D4007091C9048827992705E00E94E5140E9484
:1039E4005915009157020E944D19009156020E94E8
:1039F4004D19009155020E944D190EE20E944D1975
:103A0400009154020E944D19009153020E944D19D5
:103A140008950E942E1AE2E1F9E40091CA040770A5
:103A24001127E00FF11FE00FF11F05911491F80128
:103A34000E944E1908950E942E1A0091CA0404305F
:103A440041F0CCECD4E00E94DD1B0CE00E944D1947
:103A54000FC000E00E944D19C0EDD4E06881798167
:103A640080E090E000E000935D0206E00E94761B97
:103A740008950E942E1A0091CA04043041F0CEEC3D
:103A8400D4E00E94DD1B0CE00E944D190FC000E041
:103A94000E944D19C2EDD4E06881798180E090E004
:103AA40000E000935D0206E00E94761B08950E94E8
:103AB4002E1AC4EDD4E06881798180E090E000E0C2
:103AC40000935D0204E00E94761B089508950E940D
:103AD4002E1AECEBF8E40091CB04002309F001E08A
:103AE40010E0E00FF11FE00FF11F05911491F801B0
:103AF4000E944E1908950E942E1AE8EEF8E40091EF
:103B0400CB0410E0E00FF11FE00FF11F05911491B9
:103B1400F8010E944E190895611A691A6D1A711AF2
:103B2400781A611A901AA91AB91AC91A0C1B121B0D
:103B3400181B1E1B3C1B671BB51BB51BB51BB51BFC
:103B4400B51BB51BB51BB51B1A1C1A1C1A1C1A1C59
:103B54001A1C1A1C1A1C1A1C361C361C361C361C41
:103B6400611A611A611A611A611A611A611A611A79
:103B7400611A611A611A611A4D1C5B1C641C6B1C6E
:103B8400741C9E1CC51CE81C0B1D1D1D3B1D591DD2
:103B9400681D691D7D1D611ACF93DF93C6E6D2E0CF
:103BA4000F9300581127C00FD11FC00FD11F0981D7
:103BB400007600360F9131F40F930E942E1A0E9462
:103BC4009C190F91DF91CF9108950F9305E8003C64
:103BD40020F40E94CE1D0395FACF0F910895CF9340
:103BE400DF930F931F93C6E6D2E000E4002331F085
:103BF4000A9519811F7D19832296F8CF1F910F9181
:103C0400DF91CF910895FF92FFB6FF92AF93BF93D8
:103C1400CF93DF93EF93FF930F921F922F923F92D4
:103C24004F925F926F927F928F929F92AF92BF92C8
:103C3400CF92DF92EF92FF920F931F932F9300E0A6
:103C4400AA24BB24CC24BB27AA270090BD0111249D
:103C54001394EEEBF1E0CEECD1E0109147011F702C
:103C6400043008F077C09C8488847C806880208439
:103C7400419030845190079428F01F9211221F9094
:103C840009F464C083FE01C01BC01F92109411216B
:103C94001F900F931F9314E9010F0E94F2190E94C1
:103CA4001A1A1F910F9152C011290F931F9314E9EF
:103CB400010F0E94061A0E941A1A1F910F9146C002
:103CC400421453040CF01EC01F9211221F9009F4D9
:103CD40017C0992049F09A949C8680FCA39481FC97
:103CE400B39482FCC39432C00F931F9314E9010F61
:103CF4000E94F2190E941A1A1F910F916C86C5CF67
:103D04006C8624C01F9211221F9009F408C07C867F
:103D140080FCA39481FCB39482FCC39417C09920C3
:103D240019F09A949C8612C00F931F9314E9010F03
:103D34000E94061A0E941A1A1F910F9180FCA394E4
:103D440081FCB39482FCC3947C86AECF110C219683
:103D5400039586CF1093470103B1007F10951F7020
:103D6400012B102F15B91091B004133009F009C0BC
:103D7400C5E4D2E00027088309830CE80E941A1ADC
:103D8400F6C10091BD04003009F435C00091BC04B3
:103D94001127EEEBF1E0E00FF11FE00FF11FC081FE
:103DA400D18100E010E80C171D0709F424C0EEEBE4
:103DB400F4E0A081B181CA17DB0708F41CC00091AC
:103DC400B004013009F017C00091C004033020F49E
:103DD40003950093C00412C000E00093B004C3EB49
:103DE400D4E00A830FEF0883098300913102006253
:103DF40000640093310200E00093C00400000091CD
:103E04002302AA2011F001E003C0013009F40027C5
:103E140000932302009132020B7FBB2009F004605F
:103E240000933202CC2009F414C000E0C3EBD4E0C8
:103E34000A8308830983C5E4D2E0088309830091D7
:103E4400310200620064009331020CE80E941A1AE5
:103E54008EC10091CB04002359F4E0E0F0E0E0933C
:103E6400E004F093E104E093E204F093E30476C108
:103E74000091CA040770043018F009F06FC1DBC068
:103E8400EEEBF1E01127E00FF11FE00FF11F60806E
:103E94007180EEEDF1E01127E00FF11FE00FF11F4B
:103EA40080809180E6EEF1E01127E00FF11FE00F32
:103EB400F11FA080B1806814790418F083013401E3
:103EC40048018A149B0418F08401450158016814C0
:103ED400790418F08301340148018A149B0418F012
:103EE4008401450158018401E0E0F0E80E171F0742
:103EF40009F434C10F930091CB040093E9040F91AA
:103F0400E091E004F091E104C091E204D091E30473
:103F1400E017F107A0F0E091CE04F091CF040E1762
:103F24001F0760F0E091D404F091D504C0914502DC
:103F3400D0914602CE17DF0708F073C00FC1E0939B
:103F4400E204F093E304F801E093E004F093E10465
:103F5400C091CC04D091CD04CE17DF0730F00F937D
:103F640001E00093CB040F91F9C0C091CE04D0912D
:103F7400CF04EC17FD07C8F0E091CE04F091CF0414
:103F84000E171F0788F00F9303E00093CB040F91E3
:103F9400E091D404F091D504C0914502D091460239
:103FA400CE17DF0708F03DC0D9C00F9302E000939D
:103FB400CB040F91E0914502F0914602C091D404E4
:103FC400D091D504CE17DF0708F0C8C02091D404DF
:103FD4003091D5046091450270914602621B730BC7
:103FE4002091E0043091E1040091E2041091E30493
:103FF400201B310B0E940E162091CE043091CF0469
:104004000091E2041091E304201B310B442755274F
:104014000E94CF152091450230914602261B370B92
:10402400F901E0934502F09346020CE80E941A1A43
:104034000E94320893C00F930091CB040093E904CB
:104044000F91F8946091390270913A0280913B0289
:1040540090913C02789420914B0230914C02409113
:104064004D0250914E020E94CF15E091E404F0916C
:10407400E504E093E604F093E7046E177F0709F480
:104084006DC06093E4047093E504C091D004D091B2
:10409400D104C617D70730F00F9301E00093CB0487
:1040A4000F915CC0C091D204D091D3046C177D07EA
:1040B40068F01091CB0403E00093CB04011729F0BE
:1040C400E091D404F091D504ACCF48C01091CB0456
:1040D40002E00093CB04011741F0009145021091D6
:1040E40046020093D6041093D704E0914502F09160
:1040F4004602C091D404D091D504CE17DF0708F04E
:104104002DC00091D6041091D7042091D40430918D
:10411400D5042017310708F021C0021B130B9801A6
:104124006091E4047091E5040091D0041091D104ED
:10413400601B710B0E940E162091D2043091D3049F
:10414400201B310B442755270E94CF150091D6041C
:104154001091D704061B170BF80163CF0091CB0411
:104164001091E904011719F00EEB0E941A1A2F910D
:104174001F910F91FF90EF90DF90CF90BF90AF9081
:104184009F908F907F906F905F904F903F902F9073
:104194001F900F90FF91EF91DF91CF91BF91AF915D
:1041A400FF90FFBEFF900895AF922F93A5B020918A
:1041B400E8042170A226A5B823952093E8042F9142
:1041C400AF900895D580A83FD300408D14A1C8DADC
:1041D4001281FFD922DB30A4A60010B0AF00CF9328
:1041E400DF93EF93FF93C5E0D0E0E0E5F3EC319784
:1041F400319631973196319731963197319631977F
:1042040031963197319631973196319781F72197CD
:1042140061F7FF91EF91DF91CF910E940F1308E7AF
:104224000E941C1310913F0100E00E941C1318E12E
:10423400E8ECF1E405910E941C131A951123D1F7BF
:104244000E94161308950F930E940F1308E70E940B
:104254001C1300EC0E941C130F911F931091460134
:1042640001271F910E941C130E9416130091400104
:1042740003950F770093400108950F931F932F9395
:10428400212F102F10934001209341010E940F13FE
:1042940008E70E941C1300E00E941C13022F077001
:1042A400006B0E941C13012F0F700E941C13012F1E
:1042B40002950F7000610E941C130E9416132F9127
:1042C4001F910F9108950F931F932F930E94F11D37
:1042D40028E010E82A951F932F9310E010934001D3
:1042E40020934101012F122F0E943F212F911F91F2
:1042F4000E940F1308E70E941C1300E40E941C1381
:1043040000E00E941C131A95D9F70E941613222369
:1043140001F72F911F910F9108950E940F1308E741
:104324000E941C1300E80E941C130FEA0E941C1335
:104334000E941613089500000000000100001010F0
:104344001010121618008101831C023A3B3C3D3EBA
:104354003F80810083010054012090002020A000B0
:10436400209483010154022091002020A100209573
:1043740083010254032092002020A200209683018E
:104384000354042093002020A3002097830004B446
:10439400830005C4E5EAF000BE83000658475A507E
:1043A40020B5830007C0F2ECEE20008983450500A8
:1043B400D2E5ECEF008368058C83450600C8F2EE75
:1043C400E3008362068D83450700C0E2F2EE0083BA
:1043D40062078E83460488800000F321FD210522B4
:1043E400052286B186B28501CAEEEDF2F02E20E2F6
:1043F400FBEAEB2E00808501CAD020B2850100546F
:10440400B185010080008500002C2C2C2C2C2C2C38
:104414002C2C2C2C8000830A008100CDE0F1F2F0DA
:10442400EEE9EAE020E4E0F2F7E8EA2030830A016A
:104434002D2D2D2D2D2D2D2D2D2D2D2D2D2D2D2DA8
:104444002D2D830A02D2E5EAF3F9E5E583550290BE
:10445400830A032D2D2D2D2D2D2D2D2D2D2D2D2D7F
:104464002D2D2D2D2D830A04CFEEF0EEE38355047C
:1044740094830A05C4E5E9F1F2E2E8E5835E05A068
:10448400830A06C7E0E4E5F0E6EAE02020E2EAEB8E
:104494002E20835E069822830A07C7E0E4E5F0E64F
:1044A400EAE020E2FBEAEB2E20835E079C228000F8
:1044B400830A008100CDE0F1F2F0EEE9EAE020E4C5
:1044C400E0F2F7E8EA2031830A012D2D2D2D2D2D60
:1044D4002D2D2D2D2D2D2D2D2D2D2D2D830A02D25B
:1044E400E5EAF3F9E5E583550291830A032D2D2DC1
:1044F4002D2D2D2D2D2D2D2D2D2D2D2D2D2D2D8392
:104504000A04CFEEF0EEE383550495830A05C4E56F
:10451400E9F1F2E2E8E5835E05A1830A06C7E0E477
:10452400E5F0E6EAE02020E2EAEB2E20835E06993D
:1045340022830A07C7E0E4E5F0E6EAE020E2FBEACA
:10454400EB2E20835E079D228000830A008100CD2C
:10455400E0F1F2F0EEE9EAE020E4E0F2F7E8EA2044
:1045640032830A012D2D2D2D2D2D2D2D2D2D2D2D6B
:104574002D2D2D2D2D2D830A02D2E5EAF3F9E5E543
:1045840083550292830A032D2D2D2D2D2D2D2D2D96
:104594002D2D2D2D2D2D2D2D2D830A04CFEEF0EE56
:1045A400E383550496830A05C4E5E9F1F2E2E8E5FC
:1045B400835E05A2830A06C7E0E4E5F0E6EAE020AC
:1045C40020E2EAEB2E20835E069A22830A07C7E0E4
:1045D400E4E5F0E6EAE020E2FBEAEB2E20835E0766
:1045E4009E228000830A008100CDE0F1F2F0EEE922
:1045F400EAE020E4E0F2F7E8EA2033830A012D2D13
:104604002D2D2D2D2D2D2D2D2D2D2D2D2D2D2D2DD6
:10461400830A02D2E5EAF3F9E5E583550293830AB6
:10462400032D2D2D2D2D2D2D2D2D2D2D2D2D2D2DE0
:104634002D2D2D830A04CFEEF0EEE38355049783EA
:104644000A05C4E5E9F1F2E2E8E5835E05A3830A1D
:1046540006C7E0E4E5F0E6EAE02020E2EAEB2E20FB
:10466400835E069B22830A07C7E0E4E5F0E6EAE0FE
:1046740020E2FBEAEB2E20835E079F228000830A60
:10468400008100CDE0F1F2F0EEE9EAE020E4EEE7AB
:10469400E0F2EEF0E0830A012D2D2D2D2D2D2D2D90
:1046A4002D2D2D2D2D2D2D2D2D2D830A02D8E0E31A
:1046B400E82020202020208A830A032D2D2D2D2D53
:1046C4002D2D2D2D2D2D2D2D2D2D2D2D2D830A040C
:1046D400C8F2EEE3EE20202020208D20ECEB830AAC
:1046E40005D1F2EEEF00F7E5F0E5E7008E20ECEB04
:1046F400830A06C4EEE7E8F0EEE2EAE0208F20EC5D
:10470400EB830A078780830A008100CAE0EBE8E1B3
:10471400F0EEE2EAE02020EDE0F1EEF1E0830A01C0
:104724002D2D2D2D2D2D2D2D2D2D2D2D2D2D2D2DB5
:104734002D2D830A02D2E5EAF3F9E5E520203A209B
:104744008B830A032D2D2D2D2D2D2D2D2D2D2D2D2E
:104754002D2D2D2D2D2D830A04D1F7E5F2F7E8EA4E
:1047640020203A8A830A05D2E5ECEF008C00C8F2D7
:10477400EEE38D830A062D2D2D2D2D2D2D2D2D2D82
:104784002D2D2D2D2D2D2D2D830A07C7E0EFE8F1BA
:10479400E0F2FC2020E220454550524F4D80830A30
:1047A40000810020CAEEEDF2F0EEEBFC20F0E0E731
:1047B400E3EEEDE020830A012D2D2D2D2D2D2D2D41
:1047C4002D2D2D2D2D2D2D2D2D2D830A02D2E5EAF3
:1047D400F3F9E0FF20D220202000B3830A032D2D1B
:1047E4002D2D2D2D2D2D2D2D2D2D2D2D2D2D2D2DF5
:1047F400830A04D1EEF1F2EEFFEDE8E5202020205B
:10480400B0830A05C4E0F2F7E8EA20202020202043
:1048140020202020D2B1830A06CFEEF0EEE3202040
:10482400202020202000B2830A072D2D2D2D2D2D90
:104834002D2D2D2D2D2D2D2D2D2D2D2D8000830A4B
:1048440000810020C4E5EAF0E5ECE5EDF220EEF2AB
:10485400E1EEF0E0208304012D2D2D2D2D2D2D2DA5
:104864002D2D2D2D2D2D2D2D2D2D2D2D8304024F50
:104874004800B70C2048034F00B60C830A03B883E2
:104884000A04BD830A05D1F2E0F0F22020202020A2
:104894002020B9830A06D4E8EDE8F820202020205F
:1048A4002020BA830A07D2E5ECEF20E220EAEEEDFD
:1048B400F6E5202000BB800060246A242C2C2020F4
:1048C40020EEF2EAEBFEF7E5ED2020202C2C800010
:1048D4002C2C20202000E2EAEBFEF7E5ED0020205E
:1048E400202C2C8078247D2481248524002CE2FB38
:1048F400EAEB2C008000E2EAEBFEF7E5ED80E0EA6B
:10490400F2E8E2E5ED80EEEAEEEDF7E5ED808E24E7
:104914009824A224AC24B6242D2000EFEE20E4E059
:10492400F2F7E8EAF320540100202D802D2000EF57
:10493400EE20E4E0F2F7E8EAF320540200202D80B0
:104944002D2000EFEE20E4E0F2F7E8EAF320540330
:1049540000202D802D2000EFEE20E4E0F2F7E8EABD
:10496400F320540400202D802D2D002020EFEE2074
:10497400EEE1FAE5ECF32020002D2D80DF24F9246C
:1049840013252D254725830000810011837A00100B
:1049940083000420837A042083000520837A052081
:1049A40083000620837A062083000720837A072069
:1049B40083000320837A0320800083000081002089
:1049C400837A00208300043E837A043C830005201C
:1049D400837A052083000620837A0620830007203B
:1049E400837A072083000320837A032080008300D6
:1049F40000810020837A002083000420837A04202D
:104A04008300053E837A053C83000620837A0620D2
:104A140083000720837A072083000320837A0320FE
:104A24008000830000810020837A0020830004201A
:104A3400837A042083000520837A05208300063EC0
:104A4400837A063C83000720837A072083000320AF
:104A5400837A03208000830000810020837A002071
:104A640083000420837A042083000520837A0520B0
:104A740083000620837A06208300073E837A073C5E
:104A840083000320837A03208000830000810020B8
:104A9400837A002083000420837A04208300052085
:104AA400837A052083000620837A0620830007206A
:104AB400837A07208300033E837A033C80006625C3
:104AC40080259A25B425CE25830000810020837A91
:104AD400002083000410837A041183000520837A64
:104AE400052083000620837A062083000720837A2A
:104AF400072083000320837A032080008300008141
:104B04000020837A002083000420837A0420830019
:104B14000510837A051183000620837A062083001A
:104B24000720837A072083000320837A03208000F0
:104B3400830000810020837A002083000420837A8C
:104B4400042083000520837A052083000610837ADD
:104B5400061183000720837A072083000320837AC9
:104B640003208000830000810020837A00208300DA
:104B74000420837A042083000520837A052083009F
:104B84000620837A062083000710837A07118300A6
:104B94000320837A03208000830000810020837A2D
:104BA400002083000420837A042083000520837A74
:104BB400052083000620837A062083000720837A59
:104BC400072083000310837A03118000EC25F62567
:104BD40000260A26CFF0EEE4EEEBE6E8F2FC202015
:104BE400F0E0E1EEF2F38000CFF0EEE4EEEBE6E885
:104BF400F2FC20E220EFE0F3E7E58000CDE0E7E01F
:104C0400E420EA20EDE0F1F2F0EEE9EAE0EC8000E5
:104C1400CAE0EBE8E1F0EEE2EAE02020EDE0F1EEBC
:104C2400F1E080001C2622262A2631263826392641
:104C34003A263B26002C2C2C2C2C2C2C2C2C8000A3
:104C440085012D20EFE0F3E7E0202D0085008000B2
:104C5400850100E0E2F2EEF1F2EEEF208000850142
:104C6400002D20F1F2EEEF202D2080008000800046
:104C7400800080004C264E26502652265426562666
:104C840058265A265C265E266026622665266726F6
:104C94006A266D262C2C2C802C2C2C802C2C2C80E1
:104CA4002C2C2C802C2C2C802C2C2C802C2C2C80F0
:104CB4002C2C2C80200F2080200D20802009208087
:104CC40000090D0080002019208000190D008000CB
:104CD40000190900800019090D800020C2CACB0008
:104CE400800020E2FBEAEB80FF92FFB6FF92EF9395
:104CF400FF931F930F93E7EFF3E00091A10410E0FB
:104D0400E00FF11F03950E3F79F00093A104019188
:104D1400003051F00093C6000F911F91FF91EF9165
:104D2400FF90FFBEFF90189508ED0093C10000E0CE
:104D340000933302F1CF0FEF0093330208EF009397
:104D4400C10008950F931F93EF93FF9300913302D3
:104D5400002379F40091A204003029F40091A30403
:104D6400003009F406C00E94C0260E94CF260E948B
:104D74009D26FF91EF911F910F910895ECEFFDE4B3
:104D84000091A30407701127E00FF11FE00FF11F3A
:104D940005911491F80109950895E3EAF4E017E008
:104DA400112321F0018101931A95FACF0027008382
:104DB4000091A204002319F00A950093A204089517
:104DC400EF93FF931F93083098F41091A2041730C7
:104DD40008F00EC0E3EAF4E0E10F1127F11F11918E
:104DE400011731F000831091A20413951093A204CB
:104DF4001F91FF91EF9108951D02DA2788271D0264
:104E0400482706271D02EA2BFF92FFB6FF92AF93B5
:104E1400BF93CF93DF93EF93FF930F931F93A7EF6A
:104E2400B3E00CE30D9306E50D930AE30D93C7E499
:104E3400D2E009810E9498151D930D9308810E9468
:104E440098151D930D93C9E4D2E009810E94981529
:104E54001D930D9308810E9498151D930D930EE3E5
:104E64000D930DE00D930AE00D9300E00D930D9367
:104E74000093A1041F910F91FF91EF91DF91CF91C6
:104E8400BF91AF91FF90FFBEFF900895FF92FFB6D0
:104E9400FF92AF93BF93CF93DF93EF93FF930F935F
:104EA4001F93A7EFB3E00CE30D930AE50D930AE318
:104EB4000D93C1E4D2E00B810E9498151D930D93CC
:104EC4000A810E9498151D930D9309810E949815DB
:104ED4001D930D9308810E9498151D930D930EE365
:104EE4000D930DE00D930AE00D9300E00D930D93E7
:104EF4000093A1041F910F91FF91EF91DF91CF9146
:104F0400BF91AF91FF90FFBEFF900895FF92FFB64F
:104F1400FF92AF93BF93CF93DF93EF93FF930F93DE
:104F24001F93A7EFB3E00CE30D9305E50D930AE39C
:104F34000D93CCEAD4E009810E9498151D930D933A
:104F440008810E9498151D930D930B810E9498155A
:104F54001D930D930A810E9498151D930D93C0EB28
:104F6400D4E008810E9498150D93C1EBD4E0088128
:104F74000E9498150D93C2EBD4E008810E94981505
:104F84000D930EE30D930DE00D930AE00D9300E0F5
:104F94000D930D930093A1041F910F91FF91EF9135
:104FA400DF91CF91BF91AF91FF90FFBEFF90089525
:104FB400FF92FFB6FF92AF93BF93CF93DF93EF932C
:104FC400FF930F931F93A7EFB3E00CE30D9303E557
:104FD4000D930AE30D93C5E4D2E009810E9498156C
:104FE4001D930D9308810E9498151D930D930EE354
:104FF4000D930DE00D930AE00D9300E00D930D93D6
:105004000093A1041F910F91FF91EF91DF91CF9134
:10501400BF91AF91FF90FFBEFF900895003398F0C9
:105024000A3318F4005388940FC0013460F0073435
:1050340018F40753889408C0013628F0073618F48A
:105044000755889401C00894089518952F932FB795
:105054002F93EF93FF93CF93DF931F930F930091BD
:10506400320204FD57C0EAE2F1E0CAE3D1E0009164
:10507400270124E014C02F932FB72F93EF93FF93AE
:10508400CF93DF931F930F930091320203FD42C02D
:10509400E6E2F3E0C6EAD3E00091C60023E00D3077
:1050A40009F42EC0073408F40CC00A3558F051F046
:1050B400013608F42FC00A3710F009F02BC0005253
:1050C400F1CF05C000C000830027088323C000334C
:1050D40050F0093348F041F0013428F0063420F050
:1050E40019F00052F9CF16C0188113951F3010F033
:1050F40009F010C01883E10F10E0F11F00830AC00B
:105104000091320214E01213086013E012130061DC
:10511400009332020F911F91DF91CF91FF91EF9194
:105124002F912FBF2F911895FF92FFB6FF92EF9307
:10513400FF93CF93DF930F931F932F93E6E2F3E054
:105144001091A6030081003509F4FCC20D3409F462
:105154005DC2043509F42CC2063509F4B0C2053524
:1051640009F407C2023509F4E4C10A3509F430C16F
:10517400093509F4D2C0083509F401C016C31E303C
:1051840009F0CAC001810E94102808F4C5C001704A
:105194000093D90402810E94102808F4BDC0053090
:1051A40008F0BAC00093D80403810E941028C8F301
:1051B4000295007F102F04810E94102890F30F7035
:1051C400102B05810E94102860F30295007F202F88
:1051D40006810E94102828F30F70202B2093DA04F4
:1051E4001093DB0401C098C007810E941028D8F3F3
:1051F4000295007F102F00850E941028A0F30F70E5
:10520400102B01850E94102870F30295007F202F37
:1052140002850E94102838F30F70202B2093DC04A1
:105224001093DD0403850E941028E8F20295007FA4
:10523400102F04850E941028B0F20F70102B0585E2
:105244000E94102880F20295007F202F06850E947C
:10525400102848F20F70202B2093DE041093DF04F3
:105264000091D9040093CB040091D8040093CA049C
:105274000091DE041091DF0420E13EE020173107A5
:1052840020F00093D4041093D5040091CA04043090
:1052940011F0F0F041C00091DC041091DD0420E233
:1052A4003EE42017310720F00093D2041093D30476
:1052B4000091DA041091DB042091D2043091D304DC
:1052C4002017310720F00093D0041093D10410C0AC
:1052D4000091DC041091DD040093CE041093CF04FC
:1052E4000091DA041091DB040093CC041093CD04F4
:1052F40008EB0E941A1A0DEB0E941A1A0EEB0E9478
:105304001A1A09EB0E941A1A0AEB0E941A1A0BEBDA
:105314000E941A1A0E94BC0E48C2163051F0113075
:1053240029F0123021F0143019F051C050C04FC090
:105334004EC000C001810E94102808F448C00F30FC
:1053440029F0017000FD0FEF0093BD0402810E945B
:10535400102808F43CC00F3019F003700093BC040B
:1053640003810E94102808F432C00295007F102F98
:1053740004810E94102808F42AC00F70102B0581A4
:105384000E94102808F423C00295007F202F068174
:105394000E94102808F41BC00F70202B00EA02178B
:1053A4000FE0010711F008F404C01093BF04209328
:1053B400BE0400EB0E941A1A01EB0E941A1A02EBB7
:1053C4000E941A1A04EB0E941A1A0E94BC0EEDC124
:1053D400113019F01930D9F0ABC001810E941028A6
:1053E40008F4E3C110E0101304C004E00E94E226B4
:1053F400DCC1139510130AC000E000933C02009333
:105404003B0200933A0200933902CFC1CEC102811C
:105414000E94102808F48CC00295007F902F03810D
:105424000E94102808F484C00F70902B04810E94FD
:10543400102808F47DC00295007F802F05810E940A
:10544400102808F475C00F70802B06810E94102864
:1054540008F46EC00295007F702F07810E94102807
:1054640008F466C00F70702B00850E94102808F4A1
:105474005FC00295007F602F01850E94102808F408
:1054840057C00F70602B01810E94102808F450C08F
:105494000F70102F1F936093410270934202809308
:1054A40043029093440250E040E030E024E60E943E
:1054B400CF1560934B0270934C0280934D029093EE
:1054C4004E021F91009132020F931F930E7F00939F
:1054D400320290E080E070E060E060933902709303
:1054E4003A0280933B0290933C020E9404080E947B
:1054F40032081F911130B1F460914102709142025F
:105504008091430290914402E8E7F0E0062F0E9464
:10551400380F072F0E94380F082F0E94380F092FC9
:105524000E94380F04E00E94E2260F910093320299
:105534003CC1113009F01CC000913202102F1770C9
:10554400103011F401600FC0113011F40E7F0BC044
:10555400123019F40D7F016006C0133019F40D7F69
:10556400016001C005C000933202002700932302AA
:105574001CC1113009F01BC001810E94102808F4DD
:1055840016C003701091B004137001170093B00497
:1055940001F0C3EBD4E00A830FEF08830983009181
:1055A400310200620093310202E00E94E226FDC053
:1055B400143009F02AC001810E94102808F425C083
:1055C4000295007F102F02810E94102808F41DC04C
:1055D4000F70102B03810E94102808F416C0029546
:1055E400007F202F04810E94102808F40EC00F7041
:1055F400202BC3EBD4E0288319831091FF001A8376
:1056040000913102006400933102CFC0163009F0DA
:10561400CCC006810E941028C8F00F3010F009F0A9
:1056240015C0202F01810E94102808F447C0C6ED40
:10563400D1E003700F93C00F00E0D01F28830F91B7
:1056440010EA0F93010F0E941A1A0F9102810E940F
:105654001028A0F10295007F102F03810E941028CA
:1056640068F10F70102B04810E94102838F1029504
:10567400007F202F05810E94102800F10F70202B3D
:10568400C0E9DCEF2C171D0728F4C1E0D8E02C1783
:105694001D07A0F401810E94102880F0C6ECD1E01F
:1056A4000F93000FC00F00E0D01F288319830F91C0
:1056B40014E9010F0E941A1A0E94BC0E76C014301D
:1056C40009F03FC001810E94102808F43AC00295F5
:1056D400007F102F02810E94102808F432C00F703E
:1056E400102B03810E94102808F42BC00295007F20
:1056F400202F04810E94102808F423C00F70202B4F
:1057040001E220170EE41007E0F4009132020F9337
:105714000E7F00933202C7E4D2E028831983C9E4E0
:10572400D2E0288319830E9404080FE80E941A1A01
:105734000EE80E941A1A0F910093320205E00E94AB
:10574400E22633C0143009F02FC001810E941028D2
:1057540008F42AC00295007F102F02810E941028AD
:1057640008F422C00F70102B03810E94102808F443
:105774001BC00295007F202F04810E94102808F48A
:1057840013C00F70202B01E120170EE0100760F406
:10579400C5E4D2E0288319830E9432080CE80E94F1
:1057A4001A1A01E00E94E22600C000270093A60313
:1057B40000913202077F009332022F911F910F91C3
:1057C400DF91CF91FF91EF91FF90FFBEFF9008957D
:1057D400FF92FFB6FF920F931F93AF93BF93CF93A4
:1057E400DF93EF93FF93E7EAF3E000E511271193CA
:1057F4000A95E9F7E7EAF3E0CEEBD1E002E00E9494
:10580400D92CC0ECD1E002E00E94D92CC2ECD1E04A
:1058140002E00E94D92CC4ECD1E002E00E94D92C11
:10582400C6ECD1E002E00E94D92CC8ECD1E002E041
:105834000E94D92CCAECD1E002E00E94D92CCCEC15
:10584400D1E002E00E94D92CC4EBD1E004E00E9434
:10585400D92CC6EDD1E001E00E94D92CC7EDD1E0EE
:1058640001E00E94D92CC8EDD1E001E00E94D92CBE
:10587400C9EDD1E001E00E94D92CC2E3D2E001E0FD
:105884000E94D92CC7E4D1E001E00E94D92CC9E3DD
:10589400D2E004E00E94D92CCDE3D2E004E00E94DF
:1058A400D92CC1E4D2E004E00E94D92CC5E4D2E0B2
:1058B40002E00E94D92CC7E4D2E002E00E94D92C75
:1058C400CCEAD4E002E00E94D92CCEEAD4E002E093
:1058D4000E94D92CC0EBD4E001E00E94D92CCCEB7F
:1058E400D4E001E00E94D92CCDEBD4E001E00E9489
:1058F400D92CCEEBD4E002E00E94D92CC2ECD4E047
:1059040002E00E94D92CCCECD4E002E00E94D92C15
:10591400CEECD4E002E00E94D92CC0EDD4E002E049
:105924000E94D92CC2EDD4E002E00E94D92CC4ED2F
:10593400D4E002E00E94D92CCAECD4E001E00E9439
:10594400D92CCBECD4E001E00E94D92CE7EAF3E0B7
:10595400C7EFD3E00CE3099307E509930AE309933E
:105964000E94CB2C0EE309930DE009930AE00993FE
:1059740000E0099309930093A104FF91EF91DF9153
:10598400CF91BF91AF911F910F91FF90FFBEFF90F8
:10599400089510E5112351F04AF01F9301910E94DC
:1059A4009815199309931F911A95F4CF0895112707
:1059B400C00FD11F002321F01A9111930A95FACF39
:1059C40008950F931F9300910201002309F413C05B
:1059D4000A9500930201109101010091000100FD5C
:1059E4002D9A00FF2D98089417950795109301019F
:1059F400009300012EC000912401002309F422C069
:105A0400009103010F3108F01DC010912501011709
:105A14000CF018C0EF93FF93E4E0F1E01127E00FDE
:105A2400F11F0395009303010081FF91EF911FEF94
:105A3400000F111F00930001109301010AE000936D
:105A4400020107C00027009303010093240100937F
:105A540025011F910F9108950F930FB70F9303B171
:105A640004FD13C0009168000E7F0093680000914C
:105A74006E00046000936E0000E00093260109E0CC
:105A84000093280106B5055F08BD0F910FBF0F9164
:105A940018950F930FB70F931F930AE116B5010FD3
:105AA40008BD00912801002361F00A9500932801A4
:105AB40000912601069513B114FB07F90093260102
